:020000040800F2
:10000000988F002081020008011400086D1000087C
:100010001713000805080008411F00080000000031
:10002000000000000000000000000000E9010008DE
:10003000550B0008000000002D02000831180008D0
:100040009B0200089B0200089B0200089B0200081C
:100050009B0200089B0200089B0200089B0200080C
:100060009B0200089B0200089B0200089B020008FC
:100070009B0200089B0200089B0200089B020008EC
:100080009B0200089B0200089B0200089B020008DC
:100090009B0200089B0200089B0200089B020008CC
:1000A0009B0200089B0200089B0200089B020008BC
:1000B000951800089B0200089B0200089B0200089C
:1000C0009B0200089B0200089B0200089B0200089C
:1000D0009B020008B51A00089B020008051B0008D7
:1000E0009B0200089B0200089B0200089B0200087C
:1000F0009B0200089B0200089B0200089B0200086C
:100100009B0200089B0200089B0200089B0200085B
:10011000911A00089B0200089B0200089B0200083D
:100120009B0200089B0200089B0200089B0200083B
:1001300000F002F800F048F80AA090E8000C8244B1
:100140008344AAF10107DA4501D100F03DF8AFF28E
:10015000090EBAE80F0013F0010F18BFFB1A43F0A5
:10016000010318473844000058440000103A24BFE7
:1001700078C878C1FAD8520724BF30C830C144BF0C
:1001800004680C607047000000230024002500264E
:10019000103A28BF78C1FBD8520728BF30C148BFEA
:1001A0000B607047642900F00B81752900F008810D
:1001B000632900F07882732900F07D820020704767
:1001C0001FB51FBD10B510BD00F0E9FA1146FFF7CD
:1001D000F7FF02F0A1F800F007FB03B4FFF7F2FF0E
:1001E00003BC01F0E1FF0000224B19680868B0E889
:1001F000F00F80F30988BFF36F8F4FF0000080F39A
:1002000011884EF00D0E704700000000064800688F
:10021000006880F3088862B661B6BFF34F8FBFF302
:100220006F8F00DF00BF00BF08ED00E0EFF3098033
:10023000BFF36F8F0F4B1A6820E9F00F106008B5FD
:100240004FF0500080F31188BFF34F8FBFF36F8FD3
:1002500003F0FAFA4FF0000080F31188BDE808407F
:1002600019680868B0E8F00F80F30988BFF36F8F52
:10027000704700BFA0000020EFF30580704700002A
:100280000948804709480047FEE7FEE7FEE7FEE72A
:10029000FEE7FEE7FEE7FEE7FEE7FEE70448054966
:1002A000054A064B70470000451800083101000858
:1002B00098890020988F0020988B0020988B002030
:1002C000704700000FB4044910B503AA029800F06B
:1002D000F7F910BC5DF814FB880000200FB41CB5C2
:1002E000074B06AA7B4469460090059800F0B9F9CF
:1002F0000020694600F0C8F91CBC5DF814FB000042
:10030000A10300002DE9F0410E46044600202062C2
:100310002046E168884730B3252805D0D4E901217B
:100320009047206A401CF2E7E16820460027884792
:10033000050018D0A5F14100192802D820354FF446
:1003400000673246294620462760FFF72BFF40B161
:10035000012804D0F61D26F007060836D8E7361D1A
:10036000D6E72846DAE7206ABDE8F08170B50C468A
:100370000546012A05D02878800600D5EA690023C1
:1003800002E0012305E05B1C934202D2E05C0028FE
:10039000F9D1A869E618C01AA861286A1844286229
:1003A0002846AFF3008004E0D5E9012114F8010BE1
:1003B0009047B442F8D32846AFF3008070BD0000E8
:1003C0002DE9F0410646002410687529314616A52E
:1003D00010D0AFF30080002802DA404213A507E0F6
:1003E00031688A0701D512A502E0490704D511A595
:1003F000012401E0AFF3008000210A2206F1240766
:1004000009E0B0FBF2FCB0FBF2F302FB1C00303061
:1004100078541846491C0028F3D123462A46304612
:10042000BDE8F04100F0BEB8000000002D00000063
:100430002B0000002000000040EA0103024630B516
:100440009B0710D14FF0013400E008C208C91D1B02
:100450009D4315EAC41FF8D013F0FF0102F8011BF9
:100460000DD01B0AF8E711F8013B002B02F8013B05
:1004700005D011F8013B002B02F8013BF3D130BD50
:1004800010B5431C02E010F8011B71B18107FAD1CD
:100490004FF0013202C88C1A8C4314EAC211F9D011
:1004A000C01A0A0603D0C01E10BDC01A10BD0A042F
:1004B00001D0801E10BD0902FCD0401E10BD032AD1
:1004C00040F2308010F0030C00F0158011F8013B71
:1004D000BCF1020F624498BF11F801CB00F8013B58
:1004E00038BF11F8013BA2F1040298BF00F801CB1C
:1004F00038BF00F8013B11F0030300F0F380083A25
:10050000C0F0088051F8043B083A51F804CBA0E849
:100510000810F5E7121D5CBF51F8043B40F8043B9E
:10052000AFF30080D20724BF11F8013B11F801CBD3
:1005300048BF11F8012B24BF00F8013B00F801CBA4
:1005400048BF00F8012B704702F0FF0343EA032283
:1005500042EA024200F002B84FF000020429C0F063
:10056000128010F0030C00F0F180CCF1040CBCF10F
:10057000020F18BF00F8012BA8BF20F8022BA1EB37
:100580000C0100F0E3B85FEAC17C24BF00F8012B46
:1005900000F8012B48BF00F8012B704770477047E7
:1005A000704770472DE9F0470D469946924604463C
:1005B00000F124080168880604D5E06921F01001E3
:1005C000216000E00120A84201DD471B00E0002778
:1005D000A1697A1902EB0900081AA0612078C00607
:1005E00002D42046AFF30080002608E0D4E90121C0
:1005F0001AF806009047206A401C761C20624E457F
:10060000F4DB2078C0060AD52046AFF3008006E070
:10061000D4E9012130209047206A401C2062381E16
:10062000A7F10107F4DC07E0D4E9012118F805007F
:100630009047206A401C2062281EA5F10105F3DCCA
:100640002046AFF300802078000602D50220BDE8E6
:10065000F0870120FBE7000001694A1C026108786D
:10066000704700B58FB0CDE90131002105910549F2
:100670007944CDE9031011466846FFF743FE0FB0F9
:1006800000BD0000E5FFFFFF0A6802F8010B0A60E9
:10069000704710B5436913B1AFF3008001E0FFF775
:1006A00065FE012010BD127800F124010A700022BD
:1006B0004A700122EDE711684FF0FF32E9E70000D0
:1006C000074B70B50D467B44FFF7CBFF0446284629
:1006D00000F061F810B14FF0FF3070BD204670BDE2
:1006E000B31B000010B5203AC0F00B80B1E81850E1
:1006F000203AA0E81850B1E81850A0E81850BFF40C
:10070000F5AF5FEA027C24BFB1E81850A0E81850AA
:1007100044BF18C918C0BDE810405FEA827C24BFFE
:1007200051F8043B40F8043B08BF7047D20728BF8C
:1007300031F8023B48BF11F8012B28BF20F8023BDB
:1007400048BF00F8012B70474FF0000200B5134678
:1007500094469646203922BFA0E80C50A0E80C50E1
:10076000B1F12001BFF4F7AF090728BFA0E80C5092
:1007700048BF0CC05DF804EB890028BF40F8042B8B
:1007800008BF704748BF20F8022B11F0804F18BFF8
:1007900000F8012B7047007B00F080007047754621
:1007A00000F02CF8AE4605006946534620F00700DD
:1007B000854618B020B5FFF771FDBDE820404FF029
:1007C00000064FF000074FF000084FF0000B21F03B
:1007D0000701AC46ACE8C009ACE8C009ACE8C00908
:1007E000ACE8C0098D46704710B50446AFF30080F1
:1007F0002046BDE81040FFF7F0BC000000487047FD
:1008000038890020FEE7000070B50D4C00252078E7
:1008100058B9A17849B1A5700AA000F063FB0EA0F9
:1008200000F060FBA570257107E0E178002905D094
:10083000002803D110A000F055FBE57070BD00004A
:1008400034000020646F6F722061726520636C6FEA
:100850007365640D0A0000006C636F6B2063796C34
:10086000696E6465722073746174653A6C6F636B52
:1008700065640D0A0000000074686520646F6F7283
:100880002077617320636C6F73656420696C6C659D
:1008900067616C6C792121210D0A000038B5144C78
:1008A00001256078012812D1207801280FD1114844
:1008B0000021C0F8981110A000F014FBA570A81E2C
:1008C000002300901A460321A06803F017FE207948
:1008D00000280BD12078012808D1E078002805D124
:1008E000E570BDE8384009A000F0FCBA38BD000052
:1008F0003400002000002242646F6F722061726534
:10090000206F70656E65640D0A00000074686520D4
:10091000646F6F7220776173206F70656E656420FD
:10092000696C6C6567616C6C792121210D0A00008E
:1009300070B50B4D6878012811D1287800280ED1A8
:1009400008480024C0F89841AC7007A000F0CAFA2B
:100950000BA000F0C7FA0FA000F0C4FA2C7170BD14
:1009600034000020000022426F70656E20746865BC
:1009700020646F6F722074696D656F75740D0A0065
:10098000646F6F722061726520636C6F7365640DB4
:100990000A0000006C636F6B2063796C696E64659C
:1009A000722073746174653A6C6F636B65640D0AD1
:1009B0000000000010B501F0A5FAFFF76FFFBDE8D9
:1009C0001040FFF721BF000008B50024A046334EB9
:1009D000DFF8CCB04FF0FF3A02E0B9F1000F05D1DB
:1009E0004FF0010941F2883002F020FCC4EBC40052
:1009F00000EB40010BEB8105B5F84A0008B102F0AD
:100A000015FC681C00F06EFA002303222146B06832
:100A100003F0A6FA514653466A46002003F09CFBB9
:100A20000098D0B1062C02D1F06802F0DFFD95F8F5
:100A300047002746FF2800D00446B5F84C0018B1FF
:100A400002F0F4FB062F04D0092FC6D1012030702C
:100A5000C3E7F06802F088FEBFE7092C11D108F166
:100A6000010000F0FF08B8F10A0F0AD90020307029
:100A7000706802F079FEB06802F076FEF06802F06D
:100A800073FE95F84800FF2800D00446B5F84E00E4
:100A90000028A2D002F0CAFB9FE70000240000203B
:100AA0001401002008B54FF0FF34214623466A4662
:100AB000002003F051FB0098012806D00228F4D151
:100AC0000721044800F08EFDEFE702480721C01F10
:100AD000F8E700009345000810B50022CA21012064
:100AE00002F048FF144C0022CA21E060012002F00D
:100AF00041FF20610022CA21012002F03BFF60611A
:100B00000022CA21012002F035FFA0610022142139
:100B1000012002F02FFFE061E16839B1216929B1BC
:100B2000616919B1A16909B1002803D103A0FFF7D8
:100B3000C9FBFEE710BD0000540000206372656130
:100B40007465207175657565206661696C65640DF5
:100B50000A00000070470000F8B50121102000F0E5
:100B600099FC4020ADF800001025144E8DF803507C
:100B700003248DF802406946304600F025FA4021F2
:100B8000304600F06FFA8020ADF800008DF8035079
:100B90008DF802406946304600F016FA8021304652
:100BA00000F060FAADF8005048208DF803008DF891
:100BB00002406946304600F007FAF8BD00100140D7
:100BC0001CB5FFF7C9FF14490720CDE90001002338
:100BD000C82212A1174803F097F917480090022382
:100BE0000122642115A003F015FC0B4C0223103CDC
:100BF0000122E0601748009042F2107116A003F045
:100C000009FC4FF0FF31A060002300911A46032138
:100C100003F074FC1CBD0000440000204C6F636BAB
:100C20004F7065726174696F6E4465746563745466
:100C300061736B0065120008B509000843686563BD
:100C40006B4C6F636B416374696F6E54696D657251
:100C500000000000310900084F70656E446F6F722C
:100C600054696D656F757454696D6572000000009C
:100C70002DE9F04F87B000244FF0FF094FF47A764A
:100C8000CDF80890CDE9034608200594CDE9004051
:100C90002346224644A1204600F0F4F8012501AF86
:100CA00041F2883804210520009587E8530140F679
:100CB000B8333EA23FA1284600F0E4F86427CDF8FF
:100CC0000890CDE9034703200597CDE9004040F6A1
:100CD000B83300223AA1022000F0D4F84FF0020A03
:100CE000CDF808A0CDE903474FF0060B0597CDE9F5
:100CF000004B40F6B833002235A1032000F0C2F8C3
:100D000070000095CDE90480CDE9025444F62063DB
:100D100033A235A10195042000F0B4F802A9072000
:100D200081E891000597CDE9005A40F6B83336A224
:100D300038A1052000F0A6F842F2107A0596029438
:100D4000CDE9034ACDE9005B434636A237A1062030
:100D500000F098F87000CDE904400520CDE900507E
:100D6000CDE9025444F6206334A236A1072000F0F6
:100D700089F8CDE90346092705948DE89002002300
:100D80001A463BA1082000F07DF803A8009580E8F2
:100D90005004CDE90157334637A238A1092000F0AD
:100DA00071F807B0BDE8F08F2B2B2B006E656E67D6
:100DB0006C61690041542B43574A41503F0D0A0072
:100DC00041542B4349504D4F44453D310D0A0000DD
:100DD00041542B43495053454E440D0A0000000036
:100DE0004E4E45435445440041542B43574A4150CD
:100DF0003D226E656E676C6169222C22313233347C
:100E000035363738220D0A005354415455533A337E
:100E10000000000041542B43495053544154555352
:100E20000D0A00007375636365737300553A3132C0
:100E30003331323331320D0A000000004E4E45434B
:100E40005400000041542B43495053544152543DE7
:100E500022544350222C2234372E3130332E343456
:100E60002E323434222C363738390D0A0000000077
:100E70002B2B2B0D0A0000004F4B000041540D0A94
:100E8000000000002DE9F05F15461E460A46DDE928
:100E90000C97DDE90AB8C0EBC001114B01EB410131
:100EA000DDF838A003F8210003EB8104601C114633
:100EB000FFF7C2FA25B104F133002946FFF7BCFA67
:100EC000A4F8506084F852B084F8478004F8489F32
:100ED0006780A4F804A00F98E080BDE8F09F0000B0
:100EE0001401002010B504460C48B4B00078002866
:100EF00011D021460DF10200FFF79EFA2046FFF7C0
:100F0000BFFAADF80000064800234FF47A72694634
:100F1000006802F081FE34B010BD00002400002003
:100F20006C0000201CB5FFF7A3FE13480924CDE98F
:100F300000400023962211A1154802F0E5FF0E495A
:100F40000A20091DCDE900010023B42211A1164891
:100F500002F0DAFF084800230830CDE90040B4224F
:100F600012A1184802F0D0FF034C241FE06802F0E1
:100F7000FBFB012020701CBD280000204368656336
:100F80006B4E6574776F726B5461736B0000000079
:100F9000C90900084C6F63616C436D64416E616CFC
:100FA000797A655461736B00B111000853657276EC
:100FB0006572436D64416E616C797A655461736BDF
:100FC0000000000021170008F0B5CC78002204F0E2
:100FD0000F03E40601D58C7823430C784FF00F0CF7
:100FE00014F0FF0F4FF0010E1BD005680E880EFAAB
:100FF00002F42640A64210D196000CFA06F725EA24
:10100000070703FA06F5CE783D43282E02D0482E76
:1010100002D002E0446100E00461521C082AE5D3DA
:1010200005600A88FF2A1CD94468002202F10806DC
:101030000EFA06F50E882E40AE420ED196000CFA3E
:1010400006F7BC4303FA06F7CE783C43282E00D1BE
:101050004561CE78482E00D10561521C082AE5D39F
:101060004460F0BD4161704701617047FEE70000D8
:1010700002494CF6CC400860704700000030004048
:1010800002494AF6AA20086070470000003000407C
:101090000149486070470000003000400149886005
:1010A00070470000003000400149086070470000B0
:1010B000003000404FF47A74204602F0B7F8FFF792
:1010C000DFFFF9E77CB504460D4645F25550FFF7C2
:1010D000EBFF2046FFF7DCFF2846FFF7DFFFFFF7B7
:1010E000CFFFFFF7C5FF05492020CDE90001002310
:1010F000402203A1054802F007FF7CBD4C00002000
:10110000497764675461736B00000000B5100008F4
:1011100038B50D4C0D4A208850B1D2F8B41129B120
:101120000021C2F8B411401E208038BD0121F8E72B
:101130000120C2F8B401801E002300901A4603214A
:10114000606803F0DBF938BD18000020000022427F
:101150007CB50121102000F09DF94FF40054ADF84A
:10116000044010208DF8070003200B4D8DF8060079
:1011700001A92846FFF728FF21462846FFF774FFFC
:101180000648012300901A46642105A003F042F9A5
:10119000064948607CBD00000010014011110008A4
:1011A0004C656454696D65720000000018000020F1
:1011B000B4B0294E294F4FF0FF396D4649464B4692
:1011C00033AA002002F0C8FF3398C0EBC00000EB48
:1011D000400006EB800090F8520090B30024DFF846
:1011E000808018E0002301226946D8F8000002F050
:1011F000FDFB01280ED13398C0EBC00000EB40008E
:1012000006EB8001A81C333100F06EF870B9A81C01
:1012100000F026FA641C3398C0EBC00000EB4000DD
:1012200006EB8000B0F85000A042DBD83398C0EB4A
:10123000C00000EB400006EB8000B0F85000A04278
:1012400003D900230322012102E0002303221946CF
:10125000786802F085FEB1E7140100202400002028
:10126000680000201CB5124D4FF0FF342146234684
:1012700001AA002002F070FF0198012815D0022871
:1012800004D00328F2D100F05BF9EFE700F02AFE6A
:1012900008A0FFF727FE02F0E5FE024600940023B7
:1012A0000121A86803F02AF9E0E700F011F8DDE772
:1012B00034000020756E6C636F6B2063796C696E0F
:1012C000646572207375636365737365640D0A00EA
:1012D00003490020C1F8980102494870087170471D
:1012E000000022423400002030B50C46B3B0054661
:1012F0006946204600F0CEFF6A462146284600F0A7
:10130000E4FFA0F57F41FF3903D010B1012033B0D5
:1013100030BD0020FBE7FEE74FF0FF3529460120F6
:1013200001F062FD10F0FF0FF8D001F0A3FD00EB1B
:10133000C000800001F0B0FC044602F04FF801F05C
:101340002FFE21460FA0FEF7BDFF01F065FE2046EF
:1013500001F094FE01F024FE002001F091FD014611
:101360000AA0FEF7AFFF01F057FE02F0ABFA044609
:1013700001F016FE214613A0FEF7A4FF01F04CFE7B
:10138000CCE700000D0A25730D0A00000D0A4D6F11
:101390006E69746F725461736B20737461636B2038
:1013A00068696768207761746572206D61726B3A55
:1013B0002072656D61696E20256420776F72640DFF
:1013C0000A000000667265656D656D3A25640D0A58
:1013D000000000001CB505490320CDE900010023F1
:1013E000642203A1054802F08FFD1CBD20000020EF
:1013F0004D6F6E69746F725461736B00191300083E
:101400007047000030B50F23C27801780125F2B192
:10141000144A126801F1E02102F4E062C2F5E062D0
:10142000120AC2F10404D3404278A24084781C40DE
:101430001443220181F80024007800F01F018D4040
:101440004009800000F1E020C0F8005130BD01F0FB
:101450001F0085404809800000F1E020C0F880515D
:1014600030BD00000CED00E002490843024908606D
:10147000704700000000FA050CED00E0044A002966
:10148000D16901D0014300E08143D1617047000080
:1014900000100240044A0029916901D0014300E094
:1014A00081439161704700000010024030B5204A2E
:1014B0005168204B11F00C0103D0042901D00829F8
:1014C00001D0036012E05168536801F470114FF0CD
:1014D000020413F4803F04EB914102D053689B0354
:1014E00001D5154B00E0134B5943016051680F23A0
:1014F00003EA1111114B5C5C0168E14041605468E2
:10150000072505EA14241C5D21FA04F4846054685C
:1015100005EAD4241B5DD940C1605268032303EA65
:101520009232064B1B1F9A5CB1FBF2F1016130BD98
:101530000010024000127A0000093D0090000020D7
:1015400010B50D4C207810B90CA0FFF7CBFC20781B
:10155000012802D10EA0FFF7C5FC207810B911A018
:10156000FFF7C0FC2078012804D1BDE8104015A089
:10157000FFF7B8BC10BD000034000020646F6F722C
:101580002073746174653A636C6F7365640D0A004F
:10159000646F6F722073746174653A6F70656E6505
:1015A000640D0A006C636F6B2063796C696E64650F
:1015B000722073746174653A6C6F636B65640D0AB5
:1015C000000000006C636F6B2063796C696E64656A
:1015D000722073746174653A756E6C6F636B6564C9
:1015E0000D0A0000F0B587B00D460646ADF80010B4
:1015F0006F4600241421B81CFEF7AEFF04E0305DF6
:101600003919641C8870E4B2AC42F8D30448002352
:101610004FF47A726946006802F0FEFA07B0F0BD36
:10162000700000201CB505490620CDE9000100230B
:10163000962203A1094802F067FC1CBD4800002067
:10164000436865636B5365706375724F7065726153
:1016500074696F6E5461736B00000000A50A000886
:1016600070B506461DA1FFF73FFE1F4C28B10023B1
:1016700003220221206802F073FC1CA13046FFF710
:1016800033FE28B1002303220121206802F068FC08
:1016900018A13046FFF728FE1A4D28B10023032277
:1016A0000221286802F05CFC17A13046FFF71CFEFF
:1016B00028B1002303220121286802F051FC15A162
:1016C0003046FFF711FE002807D02068BDE87040C3
:1016D00000230322114602F043BC70BD435F554E08
:1016E0004C4F434B0000000044000020435F4C4F30
:1016F000434B0000435F53544152545F4558414DA2
:101700000000000048000020435F454E445F4558FC
:10171000414D0000545F4C4F434B535441544500DE
:10172000B4B0084C4FF0FF356E4600232A46694698
:10173000206802F05BF90128F7D1B01CFFF790FF99
:10174000F3E70000680000200CB500222648009254
:101750000192016841F4803101604FF4A063016897
:1017600001F4003101910099491C0091019911B9CE
:1017700000999942F3D10168890333D50121019180
:101780001A490A6842F010020A600A6822F003024D
:101790000A600A6842F002020A60416841604168DA
:1017A0004160416841F480614160416821F47C11ED
:1017B0004160416841F4E8114160016841F0807185
:1017C000016001688901FCD5416821F00301416095
:1017D000416841F0020141604168C1F38101022981
:1017E000FAD10CBD01920CBD001002400020024055
:1017F00008B54FF0FF35074C02F034FC0246009567
:1018000000230121206802F079FE002001F044FD50
:10181000F2E70000400000204FF0E02104280869B2
:1018200003D020F004000861704740F00400FAE79C
:1018300010B502F009FC012803D0BDE8104002F009
:1018400083B810BD0F4810B5016841F00101016077
:1018500041680D4A1140416001680C4A1140016025
:10186000016821F480210160416821F4FE0141609A
:101870004FF41F018160FFF767FF05494FF00060DB
:10188000086010BD001002400000FFF8FFFFF6FEE8
:1018900008ED00E030B501218C07E7B0204600F0EC
:1018A00094F800284ED00121204600F081F8264C03
:1018B00020780025D8B16088A188884215D125708C
:1018C000A580E06888B16088ADF800001F490DF17F
:1018D0000200FEF7B1FD002366AA6946E06802F047
:1018E0005FFAC8211948FEF737FE6088A08060784B
:1018F000E8B1E0882189884217D165702581606947
:1019000098B1E0881149ADF8CC00C8310DF1CE0096
:10191000FEF792FD002366AA33A9606902F040FA3F
:101920000A48C821C830FEF717FEE0882081669873
:10193000002807D006494FF080500860BFF34F8F52
:10194000BFF36F8F67B030BD540000205C040020EF
:1019500004ED00E07FB50D46044601210846FFF77F
:101960008DFDADF80440ADF8005000244FF08045E7
:10197000ADF80640ADF802406946284600F03AF856
:1019800001221146284600F02CF81C218DF80C107D
:1019900006208DF80D008DF80E4001208DF80F0007
:1019A00003A8FFF72FFD0121284600F004F87FBDB2
:1019B000C943018270470029018802D041F001012A
:1019C00001E021F001010180704702460020138AE6
:1019D00092890B4202EA010202D0002A00D00120C3
:1019E0007047002A828901D00A4300E08A4382813D
:1019F0007047000030B502881B4C1C4DA0420DD032
:101A0000A8420BD0B0F1804F08D0194B984205D0B6
:101A1000184B984202D0184B984203D122F0700321
:101A20004A881A43154B984206D0154B984203D06A
:101A300022F44073CA881A4302808A8882850A8801
:101A40000285A0420AD0A84208D00E4A904205D092
:101A50000D4A904202D00D4A904201D1097A018686
:101A60000121818230BD0000002C01400034014082
:101A70000004004000080040000C0040001000403E
:101A80000014004000400140004401400048014073
:101A900010B5074C40F22551204600F06FF80028A1
:101AA00004D02046BDE8104000F0F6B810BD00009C
:101AB000004C004070B5104D40F22551284600F012
:101AC0005DF8002816D00D4C207838B90120207020
:101AD000C8210B48FEF740FD00206080284600F03A
:101AE000DBF80749628888546088C72802D260887A
:101AF000401C608070BD0000003801405400002090
:101B00005C04002070B5104D40F22551284600F0CD
:101B100035F8002816D00D4C607838B90120607077
:101B2000C8210B48FEF718FD0020E080284600F091
:101B3000B3F80749E2888854E088C72802D2E088D1
:101B4000401CE08070BD00000048004054000020B0
:101B500024050020C943018070470029818902D0F3
:101B600041F4005101E021F40051818170470246A7
:101B7000002012880A4200D00120704770B501F0A1
:101B80001F0501260024C1F3421306FA05F2012BBA
:101B90000FD0022B0FD0838A4FEA11210088134205
:101BA00006FA01F600EA060001D000B10124204641
:101BB00070BD8389F0E7038AEEE710B5C1F34213E5
:101BC00001F01F040121A140012B07D0022B07D0F7
:101BD0001430002A026805D00A4304E00C30F8E70C
:101BE0001030F6E78A43026010BD000030B50446AD
:101BF000008A85B00D464CF6FF710840E988014324
:101C00002182A0894EF6F3110840A9882A89114340
:101C10006A8902431143A181A08A4FF6FF4108401F
:101C2000A9890143A1826846FFF740FC1948844214
:101C300001D1039800E00298A189090400EBC001DA
:101C400001EB0010296801D5490000E08900B0FBD4
:101C5000F1F06422B0FBF2F109010B096FF01805F5
:101C60006B4300EB8300A3891D044FF0320306D5BC
:101C700003EBC000B0FBF2F000F0070005E003EB5F
:101C80000010B0FBF2F000F00F000843208105B017
:101C900030BD0000003801408088C0F30800704764
:101CA000C1F308018180704770B5054686B00121F7
:101CB00044F20400FFF7EEFB4FF40070ADF81000A3
:101CC00003208DF8120018201D4E8DF8130004A972
:101CD0003046FFF779F93015ADF8100004248DF87F
:101CE000134004A93046FFF76FF925208DF8140042
:101CF0008DF8154000248DF8164001208DF817004E
:101D000005A8FFF77FFBADF80440ADF80640ADF83D
:101D10000840ADF80C400C200A4CADF80A000095C4
:101D200069462046FFF762FF012240F22551204616
:101D3000FFF743FF01212046FFF70FFF06B070BDFC
:101D4000000801400038014070B5054686B0012109
:101D50000820FFF79FFB01218804FFF78FFB4FF45A
:101D60008060ADF8100003208DF8120018201E4E80
:101D70008DF8130004A93046FFF726F9F014ADF8EA
:101D8000100004248DF8134004A93046FFF71CF915
:101D900027208DF814008DF8154000248DF816408A
:101DA00001208DF8170005A8FFF72CFBADF80440C3
:101DB000ADF80640ADF80840ADF80C400C200B4CD7
:101DC000ADF80A00009569462046FFF70FFF012293
:101DD00040F225512046FFF7F0FE01212046FFF793
:101DE000BCFE06B070BD0000000C01400048004081
:101DF00070B50546012186B0C804FFF73FFB0121FD
:101E00001020FFF747FB4FF48060ADF8100003206F
:101E10008DF812001820224E8DF8130004A93046C8
:101E2000FFF7D2F8F014ADF8100004248DF8134039
:101E300004A93046FFF7C8F834208DF814008DF857
:101E4000154000248DF8164001208DF8170005A8D4
:101E5000FFF7D8FAADF80440ADF80640ADF80840F9
:101E6000ADF80C400C200F4CADF80A000095694607
:101E70002046FFF7BBFE40212046FFF76BFE012105
:101E80002046FFF76AFE40212046FFF763FE01224D
:101E900040F225512046FFF790FE06B070BD0000CD
:101EA00000100140004C00402DE9F0410C4F0D4660
:101EB0000646002440213846FFF74CFE0BE0315D1A
:101EC0003846FFF7EDFE40213846FFF750FE012867
:101ED000F9D1641CA4B2AC42F1D3BDE8F08100009A
:101EE000004C0040054948780A78104305D1044A5F
:101EF0000120C2F898014870087170473400002032
:101F0000000022420C4910B5D1F8104100220B48C4
:101F1000012324B1D1F81041012C02D002E002705B
:101F200000E00370D1F8984104B94270D1F89811DB
:101F3000012900D1437010BD00002242340000206E
:101F4000FEE70000B4B00D4C0D4D4FF0FF366F466C
:101F5000002332466946E06801F048FD0128F7D1C8
:101F600008A1B81CFFF7C0F90028F1D00023022215
:101F70001946286801F0F4FFEAE700005400002049
:101F8000200000206D6F6E69746F7200B4B00A4C4F
:101F90004FF0FF356E4600232A466946206901F05E
:101FA00025FD0128F7D1B01CFEF76AFA81B2B01CFA
:101FB00000F004F8EFE70000540000202DE9F041A4
:101FC0000C4F0D460646002440213846FFF7C2FD5F
:101FD0000BE0315D3846FFF763FE40213846FFF7DE
:101FE000C6FD0128F9D1641CA4B2AC42F1D3BDE80E
:101FF000F0810000003801404FF47A74204601F06F
:1020000015F9FBE7B4B00C4C4FF0FF356E460023DA
:102010002A466946A06901F0E9FC0128F7D100F0E1
:10202000BFFFB01CFEF72CFA81B2B01C00F006F81E
:1020300000F0F2FFEBE70000540000202DE9F04132
:102040000C4F0D460646002440213846FFF782FD1E
:102050000BE0315D3846FFF723FE40213846FFF79D
:1020600086FD0128F9D1641CA4B2AC42F1D3BDE8CD
:10207000F08100000048004086B00B4C4FF0FF3567
:102080006E4600232A466946E06901F0AFFC01284C
:10209000F7D100F085FFBDF80010B01CFFF704FF7A
:1020A00000F0BAFFEDE70000540000201CB54FF42B
:1020B000E1342046FFF7F8FD2046FFF745FE4FF4D8
:1020C0001650FFF795FE2111C820FFF743FCFEF7DD
:1020D00003FD1B490420CDE900010023C82219A1FA
:1020E0001C4801F011FF16490520091DCDE900012A
:1020F0000023C82218A11C4801F006FF104808243C
:102100000830CDE900400023C82218A11B4801F087
:10211000FBFE0B4909200C31CDE900010023C82248
:1021200017A11B4801F0F0FE054800231030CDE94F
:102130000040C82217A11B4801F0E6FE1CBD0000AC
:102140007400002055736172743153656E6454617C
:10215000736B00008D1F00085573617274315263F8
:10216000765461736B000000451F0008557361725F
:10217000743353656E645461736B0000052000086E
:102180005573617274335263765461736B0000004F
:10219000F91F000855736172743453656E6454619D
:1021A000736B0000792000087047000010B5042010
:1021B000FFF732FB0C480D490D4A0068B0FBF1F304
:1021C000B0FBF1F14FF47A7041431370012050805D
:1021D0004FF0E020026942F00202026141610169B0
:1021E00041F00101016110BD0400002040420F00D8
:1021F0005000002070B5050005D14FF4A06214A175
:1022000018A0FEF75FF81B4E3068854201D1002010
:1022100070BD00F0C5FE6C6900F0FEFE706B84427C
:1022200002D0B06B844201D1022070BD12488442BA
:1022300004D1A86A0028F7D1032070BD0E481438D5
:10224000844202D00CB1012070BD042070BD00009A
:102250002E2E5C4672656552544F535C7461736BED
:10226000732E63004572726F723A25732C25640DCC
:102270000A000000A0000020FC08002004490A8891
:102280005206FCD5024AC1B2121D118070470000EF
:102290000038014070B50C460546FEF7F1F84FF0E6
:1022A000FF320023401E22600CE0511C03D0A95CC9
:1022B000EE5CB14204D1521C5B1C44F8232001E0C7
:1022C00054F822208342F0DB70BD2DE9F047002551
:1022D00090460F4681462C46FEF7D2F80646384611
:1022E000FEF7CEF80BE0611C04D019F805103A5D3A
:1022F000914202D1641C6D1C01E058F82440B542A3
:1023000001DA8442EFDB844202DB281BBDE8F08760
:102310004FF6FF70FAE700001CB54FF44070FFF76E
:10232000A3F8FFF743FFFFF7C1FEFEF711FFFFF72A
:1023300051F8FEF7F7FDFEF743FCFFF773F9094983
:102340002020CDE900010023C82207A1094801F09F
:10235000DBFD40F635410420FEF7B4FE01F0BAF98A
:1023600000201CBD0000002053746172745461731E
:102370006B000000F11700082DE9F041184E0F46E0
:102380000446F5683068001D00F062FD38B9306819
:1023900090F82C1001208840316981433161601C24
:1023A00007D137B13168BDE8F0410E48091D00F092
:1023B000EBBD30682C44AC424460316805D2B06B50
:1023C000BDE8F041091D00F0C7BD706B091D00F0AC
:1023D000C3FDB06A844200D2B462BDE8F08100005F
:1023E000A0000020FC0800202DE9F041054600F087
:1023F000D7FD2D4EB068401CB06030682B4F10B137
:10240000706930B32BE03560B068012827D1002413
:1024100004EB840007EB800000F090FD641C202C8E
:10242000F6D3234800F08AFD2148143000F086FDE1
:102430001F48283000F082FD1D483C3000F07EFD32
:102440001B48503000F07AFD194870631430B063B7
:1024500005E03068E96AC06A884200D83560706A71
:102460000121401C70626864E86A3269814011434E
:10247000316100EB800007EB8000291D00F084FD36
:1024800000F0CAFD706900280CD03068E96AC06AA3
:10249000884207D207494FF080500860BFF34F8F42
:1024A000BFF36F8FBDE8F081A00000202C06002054
:1024B000AC08002004ED00E010B500F071FD0E4CFA
:1024C0002068A0B90D4800F039FD0C48143000F028
:1024D00035FD0A48E06014302061002210210520FB
:1024E00001F048FA206010B105A100F06BFEBDE8D4
:1024F000104000F091BD0000DC0000201009002019
:10250000546D72510000000070B5124E124D1CE067
:1025100001F092F9306820B1002401F009FFA4B95C
:1025200001E00124F9E700F03BFDF068C468201DDC
:1025300000F08EFCA868401EA8606868401E6860B5
:1025400000F06AFD204600F052F868680028DFD1EC
:1025500070BD0000E8080020A000002030B4026C2C
:102560000B46002A0BD0C1681144C1604468A142E7
:1025700001D30168C16030BC1846FDF7A0BF30BC74
:1025800070472DE9F041856B174604460026026C22
:1025900082B1C7B1E068FDF792FFE168206C091ACB
:1025A000E1602268914202D26168081AE060022F5D
:1025B00016D017E02068A8B9606801F013FE06463F
:1025C000002060600EE0A068FDF779FF216CA06834
:1025D0000844A0606168884204D32068A06001E0DC
:1025E00005B16D1E6D1CA5633046BDE8F08110B5C8
:1025F0000446006B00F042FD2046BDE8104000F0AC
:102600003DBD000010484FF40041420706D0C01DF8
:102610000D4920F00700411AC1F500410B4A002383
:102620000144C2E900030839103A21F007011160A2
:102630004B600B600B1AC0E9001393604FF0004031
:102640005360D0607047000038090020000100206E
:10265000074E4FF08054074DFFF756FF30680128B2
:10266000FAD92C60BFF34F8FBFF36F8FF4E70000F0
:102670002C06002004ED00E02DE9F047DDE9098497
:102680000E461746824691009946089DA522206B6A
:10269000FDF75AFF6FF00301206B01EB870108443F
:1026A00020F00707780705D040F22B3219A11EA0B1
:1026B000FDF708FE00202218315C82F83410315CEE
:1026C00011B1401C1028F6D3002684F84360202D59
:1026D00000D31F25E562C4E91356201D00F039FC24
:1026E00004F1180000F035FC2461C5F1200064629B
:1026F000A061666584F858604A465146384600F045
:1027000061FB2060B8F1000F01D0C8F80040BDE8BF
:10271000F08700002E2E5C4672656552544F535C64
:102720007461736B732E63004572726F723A257316
:102730002C25640D0A00000030B5114900E0114657
:102740000A688242FBD34B685C18844203D140681C
:1027500018444860084643681C18944209D1084C44
:10276000103C2468A24209D052681A4442600A68A8
:1027700012680260814200D0086030BD0460F9E751
:102780000001002070B5002441600B4D00619142B2
:1027900006D8D11A8269914206D2011D286907E044
:1027A0009A4203D2994201D3012403E0011DE86853
:1027B00000F0D2FB204670BDDC00002010B50446BE
:1027C00000F0EEFBA06B20B1002400F025FC2046B9
:1027D00010BD0124F9E72DE9F047814608689246CB
:1027E0000C460025F8B1486801F1080640684860C9
:1027F000B04201D140684860D0F80C8060684268FF
:102800006260B24201D151686160606805EBC50148
:1028100009EB8101C76853460122384600F0A2FD4A
:102820006D1C4745EAD12846BDE8F0872DE9F34104
:1028300000980F460026846C2CB940F6CE1216A1E3
:102840001AA0FDF73FFDA06BE16B884205D340F66F
:10285000CF1211A115A0FDF735FDA06BE16B8842E9
:102860000CD294F945503A4669462046FFF789FE56
:102870000646681C05D06D1C84F845503046BDE8FE
:10288000FC81606A0028F9D004F1240001F004FD05
:102890000028F3D00126F1E72E2E5C4672656552C2
:1028A000544F535C71756575652E63004572726F88
:1028B000723A25732C25640D0A000000F8B5054610
:1028C00014480E46C068C068C468201D00F0C0FAF5
:1028D000E069012817D1A0692B46411932462046EC
:1028E000FFF750FF78B100200346014600902A46CA
:1028F000204601F003FE30B907494FF4027201F19E
:102900001800FDF7DFFC616A01B02046BDE8F04029
:1029100008470000DC0000206044000870B586B065
:102920002F4E53E00198002806DADDE90301029AF0
:1029300090470198002849DB039C606910B1201D75
:1029400000F086FA05A800F0A7F8054601980A28C5
:102950003CD2DFE800F00505053B273805053B279D
:102960000298A169034601442A462046FFF70AFF60
:1029700000282BD0616A20468847E069012825D1CC
:10298000002000900298A1690023421819462046B1
:1029900001F0B4FDD0B940F2213212A117A0FDF729
:1029A00091FC13E00298A06128B94FF44E720DA17A
:1029B00012A0FDF787FCA0692B4641191A46204654
:1029C000FFF7E0FE02E0204600F058FB00231A4625
:1029D00001A9306801F00AF80028A3D106B070BD43
:1029E000DC0000202E2E5C4672656552544F535C0D
:1029F00074696D6572732E63000000004572726F1A
:102A0000723A25732C25640D0A000000F8B50D46B6
:102A1000064600F011FF684600F03EF804460098B4
:102A200010B101F085FCF8BD1148ADB1016909682C
:102A3000D9B10025311B2A46006800F0D5FB01F012
:102A400077FC0028EFD10B494FF080500860BFF3AE
:102A50004F8FBFF36F8FF8BDA642EBD801F068FC33
:102A600021463046FFF72AFFF8BD0125E2E70000C6
:102A7000DC00002004ED00E00648416B096829B144
:102A8000416BC968C9684968816270474FF0FF317E
:102A9000FAE70000A000002070B5054601F0E2FA58
:102AA000064E0446B068844203D200F009F80120C3
:102AB00000E0002028602046B46070BDDC000020EB
:102AC000F8B5184E26E0C068C4680568201D00F0FF
:102AD000BFF9616A20468847E06901281AD1A069D8
:102AE0002844A84206D924616060211DF06800F0E6
:102AF00033FA0FE000200346014600902A462046A4
:102B000001F0FCFC30B9084940F2923201F11800A2
:102B1000FDF7D8FBF06801680029D4D13169C6E916
:102B20000310F8BDDC00002060440008002101E033
:102B3000401C491C0278A52AFAD0C1F38F007047C7
:102B400008484068401C04D0F42207A111A0FDF7FA
:102B5000B9FB502080F31188BFF34F8FBFF36F8F05
:102B6000FEE70000080100202E2E5C4672656552CB
:102B7000544F535C706F727461626C655C52564462
:102B8000535C41524D5F434D335C706F72742E63E2
:102B9000000000004572726F723A25732C25640D97
:102BA0000A00000070B50025040005D140F28662DD
:102BB00007A10CA0FDF786FB0E496069884205D18C
:102BC000A06A2839884201D000B90125284670BD85
:102BD0002E2E5C4672656552544F535C7461736B64
:102BE000732E63004572726F723A25732C25640D43
:102BF0000A000000FC080020084CE068016839B1B8
:102C0000002139B10020FFF701FFFFF787FEF4E74D
:102C10000121F6E7C0680068F5E70000DC0000204D
:102C20002DE9F041044600F0BBF994F9455004F158
:102C3000240610E0A06C20B100212046FFF7F6FD2D
:102C400004E0606A48B1304601F026FB08B100F0AC
:102C50002DFC6D1E6DB2002DECDC4FF0FF3684F8BC
:102C6000456000F0D9F900F09BF994F9445004F163
:102C7000100709E0206948B1384601F00DFB08B1A2
:102C800000F014FC6D1E6DB2002DF3DC84F844607E
:102C9000BDE8F04100F0C0B92DE9F041054600263D
:102CA00000F0CAFD324F386808B9FFF7ABFCF8688E
:102CB00005424FD1002D4DD0083568070BD005F0E7
:102CC0000700C0F108000544680704D0BF2229A10D
:102CD00032A0FDF7F7FA002D3CD07868854239D84C
:102CE000234910310846046801E021460446606823
:102CF000A84202D220680028F7D13868B84684423A
:102D000028D00E682068086060680836401B1028CC
:102D10000ED96719780704D0EC2216A11FA0FDF781
:102D2000D1FA6068401B786038466560FFF704FDA3
:102D30006168D8F804004246401AC8F80400D8F880
:102D40000830984200D29060D8F80C00014300206F
:102D5000C4E9000101F0ECFA700705D04FF4967257
:102D600004A10EA0FDF7AEFA3046BDE8F0810000E8
:102D7000F00000202E2E5C4672656552544F535C65
:102D8000706F727461626C655C4D656D4D616E67EC
:102D90005C686561705F342E630000004572726F7D
:102DA000723A25732C25640D0A0000000449086856
:102DB00018B10868026D521C02650868704700006F
:102DC000A000002010B5031F4FF080741C601B1F73
:102DD00021F001011960191F024B0B6014394038B2
:102DE0000A6010BD412B000870B50C46064600F085
:102DF000D7F8154D2868406D80B92968012081F801
:102E000058005CB101212046FFF7B6FA0F494FF098
:102E100080500860BFF34F8FBFF36F8F00F0FCF856
:102E200000F0BEF82868446D002034B116B129685E
:102E3000486502E02A68611E5165296881F85800DA
:102E400000F0EAF8204670BDA000002004ED00E08C
:102E5000D0E9013201699A60D0E901235A604A68D9
:102E6000824201D182684A60002202610868401EE5
:102E7000086070470148806870470000A00000208B
:102E800008B902480068006BFFF750BEA0000020A0
:102E90002DE9F04717460A4606460024202500F093
:102EA000CBFCDFF88C80D8F8080082423AD3DFF8F8
:102EB00084906D1E05EB850104EBC40009EB8101D4
:102EC00006EB80000122FFF786FC0444002DF0D1C0
:102ED00004EBC40006EB800002224546D8F834100B
:102EE000FFF779FC044404EBC40006EB80000222E7
:102EF000A96BFFF770FC044404EBC40006EB8000F0
:102F000004220D49FFF767FC04440B4904EBC4009D
:102F100006EB800003221431FFF75DFC04440FB17F
:102F20000020386001F004FA2046BDE8F087000078
:102F3000A00000202C060020E808002000F1080175
:102F40004FF0FF32C0E90112C16001610021016050
:102F5000704700210161704730B50C68621C02D0D7
:102F600000F1080202E0026904E01A4653681D6895
:102F7000A542FAD953684B6099608A605160086134
:102F80000168491C016030BD42684A6093688B60EB
:102F900093685960916008610168491C016070473D
:102FA000502080F31188BFF34F8FBFF36F8F094913
:102FB0004868401C486001280AD10748006810F0A2
:102FC000FF0F05D04FF4BD7204A10FA0FDF77AB931
:102FD000704700000801002004ED00E02E2E5C4642
:102FE00072656552544F535C706F727461626C65A8
:102FF0005C525644535C41524D5F434D335C706F9D
:1030000072742E63000000004572726F723A25736D
:103010002C25640D0A00000010B5084C606828B922
:1030200040F2811206A111A0FDF74CF96068401E24
:10303000606001D180F3118810BD000008010020FC
:103040002E2E5C4672656552544F535C706F7274DD
:1030500061626C655C525644535C41524D5F434D16
:10306000335C706F72742E63000000004572726FE3
:10307000723A25732C25640D0A00000070B50028F3
:103080002AD0164DA0F108046068E968084205D10D
:103090004FF4A07212A11CA0FDF714F9206828B10A
:1030A00040F241120EA118A0FDF70CF96068E96822
:1030B000084211D02268002A0ED18843606000F0D7
:1030C000BBFB60686968084468602046FFF734FB12
:1030D000BDE8704001F02CB970BD0000F000002088
:1030E0002E2E5C4672656552544F535C706F72743D
:1030F00061626C655C4D656D4D616E675C686561B4
:10310000705F342E630000004572726F723A25734F
:103110002C25640D0A00000006484FF47A710068FF
:10312000B0FBF1F14FF0E020491E41610721016140
:10313000704700000400002010B5FDF79DF8104C0A
:1031400010280CD300F1E02090F8F0032178884299
:1031500005D24FF42A720BA115A0FDF7B3F8184859
:103160000068A16800F4E060884207D9BDE810401B
:103170004FF42E7203A10EA0FDF7A4B810BD0000FD
:10318000080100202E2E5C4672656552544F535C38
:10319000706F727461626C655C525644535C41524C
:1031A0004D5F434D335C706F72742E6300000000FE
:1031B0004572726F723A25732C25640D0A00000067
:1031C0000CED00E010B5074B002253F832401CB163
:1031D000521C082AF9D310BD43F8321003EBC20188
:1031E000486010BDEC05002070B515460E4604463B
:1031F000FFF7D6FE94F944100020491C01D184F851
:10320000440094F94510491C01D184F84500FFF7AA
:1032100003FFA06B28B92A46314604F1240000F0D0
:1032200075F92046BDE87040FFF7FABC10B5040000
:1032300012D00E49096B29B140F2D4420CA111A061
:10324000FDF740F800F0F8FA00212046FFF794F867
:1032500001F06EF8002807D10E494FF08050086049
:10326000BFF34F8FBFF36F8F10BD0000A000002091
:103270002E2E5C4672656552544F535C7461736BBD
:10328000732E63004572726F723A25732C25640D9C
:103290000A00000004ED00E070B50446FFF780FE70
:1032A000234D04B92C68201DFFF7D2FD58B9E06A00
:1032B000204A00EB800152F8211021B90121814000
:1032C000286988432861A06A18B104F11800FFF743
:1032D000BFFD686A401C68622868844207D1211DCE
:1032E0001548FFF751FE6868401C686007E0A86851
:1032F000401EA8602046FFF77AF9FFF7BDFBFFF7F5
:103300008BFE6869002812D0286884420FD1286B90
:1033100028B140F2654209A10DA0FCF7D3FF104986
:103320004FF080500860BFF34F8FBFF36F8F70BDB9
:10333000A00000202C060020E80800202E2E5C466D
:1033400072656552544F535C7461736B732E6300E6
:103350004572726F723A25732C25640D0A000000C5
:1033600004ED00E02DE9F0471E4691460C460700AB
:103370000ED0054605F13400C4E90050E86A20612A
:10338000286BE061686CA060207B032803D00AE012
:1033900011480568EEE700F04FFAA86A08B102206C
:1033A000207300F0C5FF4FF00008E86CC4E9050881
:1033B000052E01D0267303E03846FEF71BFF20736D
:1033C000B9F1000F05D0286BFFF7B0FB2084BDE8F2
:1033D000F087A4F82080FAE7A00000202DE9FF4143
:1033E0000027054607702C4881680291806800EB31
:1033F000C0008000FFF750FC06004BD0002202996D
:10340000FFF746FDCDE9020738463AE000EBC00081
:1034100006EB8001087B01280FD002280FD003287B
:103420000FD004280FD0002449682846FDF704F87F
:103430002846FDF725F8202109E05224F4E742242C
:10344000F2E75324F0E74424EEE72954401C0F2808
:10345000FBD32F540544039800EBC00006EB80001B
:103460008268018CCDE90012036922460BA128462F
:10347000FCF734FF2846FDF703F805440398401C89
:10348000039002998842C1D304B03046BDE8F041B0
:10349000FFF7F4BDBDE8FF81A00000200925630906
:1034A00025750925750925750D0A000001490120BA
:1034B000C8617047A000002070B50D46040005D11A
:1034C00040F60B3207A10CA0FCF7FCFE0E48016889
:1034D00020461831FFF740FD2846BDE87040012125
:1034E000FEF74ABF2E2E5C4672656552544F535C00
:1034F0007461736B732E63004572726F723A257339
:103500002C25640D0A000000A000002070B51446B0
:103510000E46050005D140F6363209A10DA0FCF794
:10352000D1FE1048016828461831FFF72DFD0CB177
:103530004FF0FF3621463046BDE87040FEF71CBF15
:103540002E2E5C4672656552544F535C7461736BEA
:10355000732E63004572726F723A25732C25640DC9
:103560000A000000A000002070B5040039D01D4DF5
:10357000E06A2968C96A884233D2A069002804DB5E
:103580002868C06AC0F12000A061E06A164E00EB16
:103590008000616906EB800081421FD1201DFFF78A
:1035A00057FC012150B9E06A00EB800256F8222056
:1035B00022B92A6901FA00F082432A612868C06AA8
:1035C000E0622A6981401143296100EB800006EB2B
:1035D0008000211DBDE87040FFF7D6BC2868C06A96
:1035E000E06270BDA00000202C06002070B5040031
:1035F0002BD01A4D286884422FD0FFF7D1FC2046EB
:10360000FFF7D0FAE8B1201DFFF722FCE06A0121A4
:103610002A69814011432961114900EB800001EBC7
:103620008000211DFFF7B0FCE06A2968C96A884262
:1036300007D30C494FF080500860BFF34F8FBFF3A2
:103640006F8FBDE87040FFF7E7BCBDE870404FF4F6
:10365000D66205A109A0FCF735BE70BDA000002010
:103660002C06002004ED00E02E2E5C4672656552AB
:10367000544F535C7461736B732E63004572726FA9
:10368000723A25732C25640D0A00000010B5040061
:1036900005D140F6C63205A109A0FCF713FE0C487F
:1036A000016A2160C068606010BD00002E2E5C467B
:1036B00072656552544F535C7461736B732E630073
:1036C0004572726F723A25732C25640D0A00000052
:1036D000A00000201CB517480024CDE90040234677
:1036E000822215A1164800F00FFC012803D100F03A
:1036F000CBFE01280AD0401C1BD102B040F28972D7
:10370000BDE810400FA114A0FCF7DCBD502080F3F1
:103710001188BFF34F8FBFF36F8F06484FF0FF3113
:103720002C38816201214161C460BDE81C4000F079
:10373000CFB81CBDCC00002049444C45000000001F
:10374000512600082E2E5C4672656552544F535C1C
:103750007461736B732E63004572726F723A2573D6
:103760002C25640D0A00000070B50446FFF718FC14
:10377000244D04B92C68201DFFF76AFB58B9E06A94
:10378000214A00EB800152F8211021B9012181402A
:10379000286988432861A06A18B104F11800FFF76E
:1037A00057FB211D1948FFF7EFFBFFF735FC686950
:1037B00028B1FFF7F5FBFFF75FF9FFF72DFC28684D
:1037C000844211D1686980B1286B28B140F25C62F3
:1037D0000FA114A0FCF776FD16494FF08050086049
:1037E000BFF34F8FBFF36F8F70BD0848A9680068A3
:1037F000884202D10020286070BDBDE8704000F012
:1038000023B80000A00000202C060020FC080020A7
:103810002E2E5C4672656552544F535C7461736B17
:10382000732E63004572726F723A25732C25640DF6
:103830000A00000004ED00E00248016B491C01632E
:1038400070470000A000002070B5134D286B10B128
:103850000120E86170BD0020E86128690F4EB0FAD0
:1038600080F0C0F11F0000EB800456F8240028B956
:1038700040F6FB220AA10FA0FCF724FD06EB840012
:1038800000F10802416849684160914201D14968EC
:103890004160C868286070BDA00000202C06002090
:1038A0002E2E5C4672656552544F535C7461736B87
:1038B000732E63004572726F723A25732C25640D66
:1038C0000A0000000148406870470000F000002036
:1038D0001CB51A4908780190FF20087008788DF807
:1038E00000009DF80000164A00F0500010700720FC
:1038F000906007E09068401E90609DF800004000D6
:103900008DF800009DF800000006F3D4107A000244
:1039100000F4E0609060019808700A48016841F482
:1039200070010160016841F070410160FFF7F4FB34
:1039300000205060FCF76AFC00201CBD00E400E0A1
:103940000801002020ED00E010B5502080F3118820
:10395000BFF34F8FBFF36F8F00F08AFB18B104499C
:103960004FF080500860002080F3118810BD0000E7
:1039700004ED00E02DE9F04117460E46050005D1A3
:103980004FF4C47210A115A0FCF79CFCBEB105FB5E
:1039900006F05430FFF780F904000ED004F1540013
:1039A0007EB12060C4E90F562046012100F0E0F806
:1039B00084F8507000212046A164BDE8F081002009
:1039C000E7E72460EEE700002E2E5C467265655244
:1039D000544F535C71756575652E63004572726F47
:1039E000723A25732C25640D0A0000002DE9FF4F63
:1039F00083B09B468A4604004FF0000605D140F292
:103A0000DC4251A155A0FCF75DFCBAF1000F07D1D3
:103A1000206C28B140F2DD424BA150A0FCF752FCD3
:103A200000F012FB38B9059828B14FF49C6246A10A
:103A30004AA0FCF747FC4FF000094FF08057DFF831
:103A40002C81FFF7ADFAA56B45B351462046E668D9
:103A5000FEF784FDBBF1000F13D0E660606A50B141
:103A600004F1240000F018FC28B1C8F80070BFF37E
:103A70004F8FBFF36F8FFFF7CFFA012007B0BDE87C
:103A8000F08F6D1EA563206810B9FFF78FF9606095
:103A900020690028EFD004F11000E3E7059808B191
:103AA0001EB106E0FFF7B8FA27E06846FFF7EEFD23
:103AB0000126FFF7B1FAFFF7BFFEFFF771FA94F99D
:103AC0004400401C01D184F8449094F94500401C06
:103AD00001D184F84590FFF79FFA05A9684600F0E8
:103AE000CFF9002820460AD0FFF79AF800F020FC12
:103AF0002046FEF763FE0028A3D00020BEE7FEF7B5
:103B00005DFED8B1206830B9FFF74AFA6068FFF768
:103B10002BFDFFF781FA04F124000599FFF7CCFC97
:103B20002046FFF77DF800F003FC002889D1C8F893
:103B30000070BFF34F8FBFF36F8F82E72046FFF710
:103B40006FF800F0F5FB7CE72E2E5C46726565523F
:103B5000544F535C71756575652E63004572726FC5
:103B6000723A25732C25640D0A00000004ED00E074
:103B700070B50D46040005D140F21B121CA121A016
:103B8000FCF7A0FBFFF70CFAD4E90F20216802FB39
:103B9000001161600021A1632168A1600A46D4E997
:103BA0000F01401E00FB0121E16021464FF0FF3074
:103BB00001F8440F487004F110004DB1FFF7BEF951
:103BC00004F12400FFF7BAF9FFF726FA012070BDCF
:103BD00021690029F8D000F05FFB0028F4D00D49DE
:103BE0004FF080500860BFF34F8FBFF36F8FEBE74C
:103BF0002E2E5C4672656552544F535C7175657527
:103C0000652E63004572726F723A25732C25640D20
:103C10000A00000004ED00E02DE9FF4F83B0994653
:103C20008B4604004FF0000605D140F2D92252A184
:103C300056A0FCF747FBBBF1000F07D1206C28B161
:103C400040F2DA224CA151A0FCF73CFBB9F1020F83
:103C500008D1E06B012805D040F2DB2246A14BA041
:103C6000FCF730FB00F0F0F938B9059828B140F2C4
:103C7000DE2241A145A0FCF725FB4FF0000A4FF0E2
:103C80008057DFF81881FFF78BF9A06BE16B884252
:103C900006D3B9F1020F03D0059800B316B325E09F
:103CA0004A4659462046FEF76CFCA16C21B14946B4
:103CB0002046FEF7BBFD05E0616A19B104F124005E
:103CC00000F0EAFA28B1C8F80070BFF34F8FBFF3D5
:103CD0006F8FFFF7A1F9012007B0BDE8F08FFFF764
:103CE0009BF921E06846FFF7D1FC0126FFF794F924
:103CF000FFF7A2FDFFF754F994F94400401C01D1ED
:103D000084F844A094F94500401C01D184F845A0F2
:103D1000FFF782F905A9684600F0B2F830B12046F5
:103D2000FEF77EFF00F004FB0020D5E7FFF738F92F
:103D3000A06BE16B884201D1012500E00025FFF76F
:103D40006BF995B104F110000599FFF7B5FB20461A
:103D5000FEF766FF00F0ECFA002894D1C8F8007076
:103D6000BFF34F8FBFF36F8F8DE72046FEF758FFED
:103D700000F0DEFA87E700002E2E5C467265655281
:103D8000544F535C71756575652E63004572726F93
:103D9000723A25732C25640D0A00000004ED00E042
:103DA0002DE9F047984615468946040005D140F2B2
:103DB0009F322AA12EA0FCF785FAB9F1000F07D196
:103DC000206C28B14FF4687224A129A0FCF77AFA7C
:103DD000B8F1020F08D1E06B012805D040F2A13202
:103DE0001EA123A0FCF76EFAFFF7A6F95020EFF30F
:103DF000118780F31188BFF34F8FBFF36F8FA06BD4
:103E0000E16B884207D3B8F1020F04D0002087F39A
:103E10001188BDE8F08794F945604246494620463E
:103E2000FEF7AFFB701C04D0761C84F845600120BF
:103E3000EDE7A06C012620B141462046FEF7F6FCD6
:103E400006E0606A0028F2D004F1240000F024FAB1
:103E50000028ECD0002DEAD02E60E8E72E2E5C463C
:103E600072656552544F535C71756575652E6300BC
:103E70004572726F723A25732C25640D0A0000009A
:103E800070B50D46040005D14FF43D6214A119A090
:103E9000FCF718FA2DB940F6D13211A115A0FCF7A4
:103EA00011FAFFF77DF8174AD06829684B1C0FD02C
:103EB0002368126A934202D0626882420AD9626819
:103EC000801A884206D2081A28602046FFF7DEFBD7
:103ED000002400E00124FFF79FF8204670BD000099
:103EE0002E2E5C4672656552544F535C7461736B41
:103EF000732E63004572726F723A25732C25640D20
:103F00000A000000A00000202DE9FF5F8346DDE9E4
:103F10000E87994616468A469000FEF7BDFE0500BC
:103F20001AD05C20FEF7B8FE040012D025630021F1
:103F3000CDE90241CDE900874B463246514658460D
:103F4000FEF79AFB2046FEF74FFA012004B0BDE8C9
:103F5000F09F2846FFF792F84FF0FF30F6E7000099
:103F60002DE9F0411F4690460D4604004FF0010632
:103F700005D141F2021228A12CA0FCF7A3F9FFF70A
:103F80000FF80FB1606D386094F85800022184F882
:103F90005810B8F1050F0ED2DFE808F00D03060C3B
:103FA0000A00616D294301E0616D491C616502E011
:103FB000022803D06565012802D028E0002626E00B
:103FC000201DFEF745FF1D4DE06A01212A69814051
:103FD000114329611A4900EB800001EB8000211D8B
:103FE000FEF7D2FFA06A28B141F23A120AA10FA04F
:103FF000FCF768F9E06A2968C96A884207D911495B
:104000004FF080500860BFF34F8FBFF36F8FFFF703
:1040100003F83046BDE8F0812E2E5C46726565528D
:10402000544F535C7461736B732E63004572726FEF
:10403000723A25732C25640D0A000000A0000020B0
:104040002C06002004ED00E00548416919B1006B21
:1040500018B100207047012070470220704700000F
:10406000A00000200148C06870470000A0000020A8
:104070002DE9F0412D4F0026386B40B1B869401C46
:10408000B861F86900B101263046BDE8F081FD68ED
:104090006D1CFD6011D1786B006828B140F6DE120E
:1040A00023A128A0FCF70EF9786BB96B7963B8638C
:1040B000386A401C3862FEF7DFFCB86ADFF894808B
:1040C000854209D3786B006880B1786BC068C4689A
:1040D000606885420DD2B8623868C06A00EB800122
:1040E00058F821000128CCD90126CAE74FF0FF304B
:1040F000F1E7201DFEF7ACFEA06A18B104F118002C
:10410000FEF7A6FEE06A01213A6981401143396158
:1041100000EB800108EB8100211DFEF735FFE06A0E
:104120003968C96A8842CDD30126CBE7A0000020B8
:104130002E2E5C4672656552544F535C7461736BEE
:10414000732E63004572726F723A25732C25640DCD
:104150000A0000002C0600202DE9F0411E461546FD
:1041600088460746FEF71CFF1C4C206890F8580054
:10417000022814D02068416DB943416521680120AF
:1041800081F858005EB101213046FEF7F5F8144978
:104190004FF080500860BFF34F8FBFF36F8FFEF773
:1041A0003BFFFEF7FDFE15B12068406D28602068DA
:1041B00090F8580001280ED02068416D21EA0801CE
:1041C000416501252168002081F85800FEF724FF91
:1041D0002846BDE8F0810025F4E70000A00000209B
:1041E00004ED00E070B504004FF000063CD01F4D18
:1041F0002868844205D040F6CC621DA121A0FCF7BE
:1042000061F8206D28B940F6CE6219A11DA0FCF717
:1042100059F8206D401E2065E26CE16A914223D07E
:1042200010BB201DFEF714FE1A49012250B9E06AA6
:1042300000EB800351F8233023B92B6902FA00F018
:1042400083432B61E06CE062C0F12000A061E06A72
:104250002B6982401A432A6100EB800001EB800049
:10426000211DFEF791FE0126304670BDA000002002
:104270002E2E5C4672656552544F535C7461736BAD
:10428000732E63004572726F723A25732C25640D8C
:104290000A0000002C0600202DE9F041C068C46827
:1042A0002CB940F6663216A11AA0FCF70BF804F1FF
:1042B00018000746FEF7CCFD1A4D286B012660B1A9
:1042C00039461948FEF760FEE06A2968C96A8842E3
:1042D00013D90120EE61BDE8F081201DFEF7B8FD85
:1042E000E06A2A6906FA00F1114329610F4900EBDF
:1042F000800001EB8000211DE4E70020EBE70000D7
:104300002E2E5C4672656552544F535C7461736B1C
:10431000732E63004572726F723A25732C25640DFB
:104320000A000000A0000020D40800202C06002075
:104330002DE9F0472B4D00242746286B28B940F281
:10434000ED7229A12DA0FBF7BDFFFEF729FE286B1A
:10435000401E2863286BE8BBA8682C490126C8B317
:10436000A1F52A798846D8F80010E9B1D8F80C00F0
:10437000C46804F11800FEF76BFD201DFEF768FD10
:10438000E06A2A6906FA00F11143296100EB800115
:1043900009EB8100211DFEF7F7FDE06A2968C96A73
:1043A0008842E0D3EE61DEE70CB1FEF765FBAC6955
:1043B0003CB1FFF75DFE00B1EE61641EF9D1002053
:1043C000A861E86930B11249012738070860BFF3D6
:1043D0004F8F00E001E0BFF36F8FFEF71DFE384600
:1043E000BDE8F087A00000202E2E5C467265655265
:1043F000544F535C7461736B732E63004572726F1C
:10440000723A25732C25640D0A000000D4080020A0
:1044100004ED00E02DE9F0470746994616460D46A3
:104420002C20DDF820A0FEF737FC040014D0B8469D
:104430004F46D1462DB94FF4C67209A10EA0FBF725
:1044400041FFFEF739F804F11801C4F8008081E853
:10445000E002201DFEF77DFD2046BDE8F08700004C
:104460002E2E5C4672656552544F535C74696D65BF
:1044700072732E63000000004572726F723A2573EA
:104480002C25640D0A0000001CB50024FEF714F86A
:104490000C48006868B10B491F20091DCDE90001D7
:1044A00000234FF4C87208A10948FFF72DFD04004E
:1044B00005D140F2331207A10CA0FBF703FF204601
:1044C0001CBD0000DC000020546D72205376630098
:1044D000F92B00082E2E5C4672656552544F535CD2
:1044E00074696D6572732E63000000004572726F0F
:1044F000723A25732C25640D0A0000002DE9FF4750
:10450000DDF830A0994690460D4606004FF00007B2
:1045100005D14FF4D37212A117A0FBF7D3FE1A4CAA
:10452000206880B1CDE900580296062D11DAFFF718
:104530008BFD02284FF0000309D000226946206855
:10454000FFF76AFB074604B03846BDE8F0875246DD
:10455000F4E700234A466946FFF722FCF2E7000031
:104560002E2E5C4672656552544F535C74696D65BE
:1045700072732E63000000004572726F723A2573E9
:104580002C25640D0A000000DC00002055011103F9
:1045900001B8C55501110302F8C40000BC4500086C
:1045A00000000020140100006C010008D046000843
:1045B00014010020848E0000880100080000000023
:1045C00000A24A04000000000000000001020304F1
:1045D00006070809000000000000000000000000BD
:1045E00001000000000000000000000000000000CA
:1045F00000000000000000000000000000000000BB
:1046000000000000000000000000000000000000AA
:10461000000000000000000000000000000000009A
:10462000000000000000000000000000000000008A
:10463000000000000000000000000000000000007A
:104640000000000000000000020406080000000056
:104650000102030401020304060708090000000028
:10466000000000000000000000000000000000004A
:10467000000000000000000000000000000000003A
:10468000000000000000000000000000000000002A
:10469000000000000000000000000000000000001A
:1046A000000000000000000000000000000000000A
:1046B00000000000000000000000000000000000FA
:1046C0000000000000000000AAAAAAAA0000000042
:04000005080002816C
:00000001FF
